:100000000C9438000C9455000C9455000C94550039
:100010000C9455000C9455000C9455000C9455000C
:100020000C9455000C9455000C9455000C945500FC
:100030000C9455000C9455000C9455000C945500EC
:100040000C9455000C9455000C9455000C94D70159
:100050000C9455000C9455000C9455000C945500CC
:100060000C9455000C94550089441010555580800F
:1000700011241FBECFEFD8E0DEBFCDBF11E0A0E05E
:10008000B1E0E6EDF4E002C005900D92A630B107B4
:10009000D9F721E0A6E0B1E001C01D92AB31B20773
:1000A000E1F70E9402020C9469020C940000BF92D6
:1000B000CF92DF92EF92FF920F931F93CF93DF9334
:1000C00040910701509108014115510509F06DC09B
:1000D00000910E0110910F01C0910C01D0910D0102
:1000E000E0901001F0901101A0910A01B0910B0174
:1000F0008091060121E030E0082E02C0220F331F5C
:100100000A94E2F7B090140190911501C090120189
:10011000D0901301E8E6F0E06591749162237323B7
:10012000672B09F030C14B2D592FEAE6F0E06591BD
:10013000749162237323672B11F000E61DE6ECE651
:10014000F0E06591749162237323672B11F0C0EF87
:10015000D5E5EEE6F0E06591749126233723232B55
:1001600011F0A0E9B5E65093150140931401D09227
:100170001301C0921201F0921101E092100110934C
:100180000F0100930E01D0930D01C0930C01B093A9
:100190000B01A0930A018F5F8F708093060188E4A2
:1001A00099E0909308018093070180910701909155
:1001B00008010197909308018093070120910301A2
:1001C00030910401C9019695879520FDE5C0909373
:1001D000040180930301E09104012091100130910A
:1001E000110190E080E021153105D1F160911401F9
:1001F00070911501472F5527CA01880F991F47FD98
:10020000CEC0AC014F575109A32FBB27A49FC001FB
:10021000A59F900DB49F900D112414E0959587959E
:100220001A95E1F74091120150911301640F751F67
:100230007093150160931401473E510530F0415011
:10024000510950931301409312012C30310510F4E1
:100250002CE030E02C503109309311012093100133
:1002600020910E0130910F016E2F0E2E000C770B96
:100270002115310529F1432F5527469FD001479F6E
:10028000B00D569FB00D11244091140150911501ED
:1002900056FD8AC048E657EF4A0F5B1FB4E05595FC
:1002A0004795BA95E1F7840F951F2232310510F476
:1002B00022E230E02252310930930F0120930E01E7
:1002C00020910901AB01421B510927FD5395E09391
:1002D000090120910C0130910D0121153105D9F052
:1002E000E32FFF27E49FB001E59F700DF49F700D91
:1002F0001124A5E075956795AA95E1F7860F971FDC
:100300002837310510F428E730E0285731093093B9
:100310000D0120930C0120910A0130910B01211550
:100320003105D9F0E32FFF27E49FB001E59F700D61
:10033000F49F700D1124E6E075956795EA95E1F755
:10034000860F971F2231310510F422E130E022514F
:10035000310930930B0120930A01803823EF920773
:1003600014F480E893EF81382CE0920714F080E8D1
:100370009CE0DF91CF911F910F91FF90EF90DF9064
:10038000CF90BF90089570E3E72E75E7F72EE8EF62
:10039000CE2EE2E0DE2EC9CE24EB922718CF4FE717
:1003A00051E0481B590B30CF48E958E075CF1F92F8
:1003B0001FB61F9211248F9380910001811111C0EB
:1003C00080911601882351F08091180180931A01C1
:1003D00080911701809319011092160180911A01E2
:1003E00004C080FFFBCF809119018093C6008091EB
:1003F00000018F5F8370809300018F911F901FBE5B
:100400001F90189584B1836084B98AB182618AB9DA
:10041000809166008D5F809366008FEF90E09093EF
:10042000890080938800109285001092840080E4F7
:10043000809380001092C5001092C40080EC8093DD
:10044000C20088E08093C10087E090E09093C500EF
:100450008093C4000E9457009C01832F869580934F
:100460001A01369527952093190180911A018093DE
:10047000C60089E0809381008091C10080628093F2
:10048000C100789411E0C0E4DFE180911601811190
:10049000FCCF0E9457009C01832F86958093180102
:1004A000369527952093170110931601809101012D
:1004B0009091020101979093020180930101892B91
:1004C00021F785B1812785B9D0930201C09301013D
:0604D000DCCFF894FFCF21
:0604D60001401FE1AC0033
:00000001FF
