:100000000C9458000C9475000C9475000C947500B9
:100010000C9475000C9475000C9475000C9475008C
:100020000C9475000C9475000C9475000C9477007A
:100030000C9475000C9475000C9475000C9475006C
:100040000C9475000C9475000C9475000C9475005C
:100050000C9475000C9475000C9475000C9475004C
:100060000C9475000C9475000000310061008E0046
:10007000B400D500EC00F900FF00F900EC00D50059
:10008000B4008E00610031000000CFFF9FFF72FFBF
:100090004CFF2BFF14FF07FF01FF07FF14FF2BFF8F
:1000A0004CFF72FF9FFFCFFF1111101055550040FC
:1000B00011241FBECFEFD8E0DEBFCDBF11E0A0E01E
:1000C000B1E0EAE5F7E002C005900D92A435B10772
:1000D000D9F721E0A4E5B1E001C01D92A935B2072E
:1000E000E1F70E942F030C94AB030C9400000F92D5
:1000F0000FB60F921F9211242F923F924F925F9250
:100100006F927F928F929F92AF92BF92CF92DF9227
:10011000EF92FF920F931F932F933F934F935F9311
:100120006F937F938F939F93AF93BF93EF93FF93BF
:10013000CF93DF93CDB7DEB72C97DEBFCDBF8091D5
:10014000540190915501A0915601B091570111961B
:100150008093540190935501A0935601B093570199
:100160008091540190915501A0915601B091570191
:100170008838984AA942B10508F481C08091540199
:1001800090915501A0915601B09157018858984A15
:10019000A942B1098093540190935501A09356014F
:1001A000B093570188EA90E0A0E0B1E024E5222E68
:1001B00021E0322E21E030E04FEF5FEF64E370E0AA
:1001C000E2EF8E2EEAEE9E2EECE1AE2EE3E0BE2EA6
:1001D00003E210E0F6E44F2EF5E25F2EF5E76F2E16
:1001E000F2E07F2EE0E1EE2EF12CFC01C590D490E0
:1001F000E0915801E983F901098002C0EE0FFF1F69
:100200000A94E2F7CE22DF22CD2859F112961D92F0
:100210001D921D921C921597F1E05496FC935497F1
:100220001B965C934E931A9753961C921E9252976C
:10023000ED91FC911197E230F10509F45EC070F484
:10024000EF2B09F04FC016964D925D926D927C9205
:1002500019971D96FC92EE921C9703C0339709F4F0
:1002600057C0029655962A163B0609F0BECF8091DC
:10027000580190E001968F7099278093580180E093
:1002800091E09A878987B4E52B2EB1E03B2E1D8241
:100290001E821F82188688248A94982CA12CB12C47
:1002A00002E0402E512C612C712CA985BA85549600
:1002B0008C91549730E020E0882309F48DC08D9113
:1002C0009C9111971A960D911C918130910509F41A
:1002D000E6C058F10297029708F453C120E030E0DD
:1002E000A9016EC016968D929D92AD92BC921997FF
:1002F0001D961C930E931C97B4CF16961D921D92BB
:100300001D921C9219971D967C936E931C97A9CFF2
:1003100016961D921D921D921C921997E8E0F0E02E
:100320001D96FC93EE931C979CCFE985FA85C280BD
:10033000D380E480F580D701C601FBE1B695A7958F
:1003400097958795FA95D1F7FC01EE0FFF1FE859B5
:10035000FF4F85919491F4E6F89FD001F99FB00D7D
:10036000112498010E94680369837A838B839C839C
:10037000A50194010E944903E985FA858681978148
:10038000A085B1858C39F3E59F07F9ECAF07B1057E
:1003900048F00297A109B109E985FA858683978318
:1003A000A087B187E985FA8586819781A085B18587
:1003B0008C0D9D1DAE1DBF1D82839383A483B583C9
:1003C000E985FA85848595858017910708F03EC1F7
:1003D000081B190B13870287032E000C440B550BC7
:1003E0008D819E81AF81B885820F931FA41FB51F99
:1003F0008D839E83AF83B887A985BA855596BA87C2
:10040000A9872A163B0609F050CF6D817E818F8126
:10041000988523E030E040E050E00E944903DA0193
:10042000C90180589F4FAF4FBF4F8F3F9105A10526
:10043000B10529F024F08FEF90E0A0E0B0E0B7FF25
:1004400003C080E090E0DC018093B4002C960FB6EE
:10045000F894DEBF0FBECDBFDF91CF91FF91EF913A
:10046000BF91AF919F918F917F916F915F914F91CC
:100470003F912F911F910F91FF90EF90DF90CF90C0
:10048000BF90AF909F908F907F906F905F904F90B4
:100490003F902F901F900F900FBE0F901895A98539
:1004A000BA851296CD90DD90ED90FC901597E8E519
:1004B000FBE1F7FC02C0E8EAF4EEFC87EB87A985D4
:1004C000BA851E964D915D916D917C915197411524
:1004D00051056105710521F44FED5BE967E573E1B5
:1004E000DB01CA012DE0880F991FAA1FBB1F2A95A7
:1004F000D1F784279527A627B727AC01BD0131E1A5
:1005000076956795579547953A95D1F7842795271E
:10051000A627B727AC01BD01E5E0440F551F661FB4
:10052000771FEA95D1F784279527A627B727E9856E
:10053000FA8586879787A08BB18B2BE430E00E94E9
:10054000680369837A838B839C83EB85FC85AF0189
:10055000FF0F660B770B89819A81AB81BC81840F79
:10056000951FA61FB71F9C01AD01D8010E946F0304
:1005700069837A838B839C83A50194010E9449033C
:1005800011CFA985BA851E96CD90DD90ED90FC9097
:100590005197C114D104E104F10441F4FFEDCF2ED1
:1005A000FBE9DF2EF7E5EF2EF3E1FF2ED701C601C1
:1005B0002DE0880F991FAA1FBB1F2A95D1F78C2504
:1005C0009D25AE25BF25AC01BD0131E1769567952E
:1005D000579547953A95D1F784279527A627B727AA
:1005E000AC01BD01E5E0440F551F661F771FEA957A
:1005F000D1F76C017D01C426D526E626F726E985CC
:10060000FA85C686D786E08AF18A97010F2C000CFE
:10061000440B550B82899389092E000CAA0BBB0B46
:10062000281B390B4A0B5B0BD8010E946F036983AF
:100630007A838B839C83A30192010E944903A9853D
:10064000BA855396FC92EE925297BACEA985BA8596
:100650001B961C921E921A9754961C92BDCE539ACA
:1006600083E28093B00081E08093B10080E88093C2
:10067000B400109280008AE0809381008FE390E0C4
:10068000909389008093880082E080936F00789433
:10069000FFCF052E97FB1EF400940E94600357FDC8
:1006A00007D00E947A0307FC03D04EF40C94600339
:1006B00050954095309521953F4F4F4F5F4F08958E
:1006C00090958095709561957F4F8F4F9F4F0895BE
:1006D0000E949C03B7FF0895821B930B08950E940C
:1006E0009C03A59F900DB49F900DA49F800D911D1C
:1006F00011240895A1E21A2EAA1BBB1BFD010DC0F7
:10070000AA1FBB1FEE1FFF1FA217B307E407F507C1
:1007100020F0A21BB30BE40BF50B661F771F881F9D
:10072000991F1A9469F760957095809590959B0133
:10073000AC01BD01CF010895A29FB001B39FC001DC
:10074000A39F700D811D1124911DB29F700D811DFD
:0A0750001124911D0895F894FFCFC5
:10075A00000000000000000000000000000000008F
:10076A00000000000001000000000000000000007E
:10077A00000000000000000000000200000000006D
:10078A00000000000000000000000000000000035C
:10079A00000000000000000000000000000000004F
:0407AA00000000004B
:00000001FF
